:100000000C942A000C9449000C9447000C9447006F
:100010000C9447000C9447000C9447000C94470044
:100020000C9447000C9447000C9447000C94470034
:100030000C9447000C9447000C9447000C94470024
:100040000C9447000C9447000C9447000C94470014
:100050000C94470011241FBECFE5D8E0DEBFCDBF12
:1000600010E0A0E6B0E0EEE1FCE002C005900D92E9
:10007000A837B107D9F720E0A8E7B0E001C01D928A
:10008000A138B207E1F70E941B030C940D060C94F3
:1000900000001F920F920FB60F9211242F933F93DF
:1000A0004F935F936F937F938F939F93AF93BF9380
:1000B000EF93FF938091780081110FC00E94CB02D3
:1000C00080917900823020F482E080937A0005C02C
:1000D000823019F481E080937A00FF91EF91BF9113
:1000E000AF919F918F917F916F915F914F913F91D0
:1000F0002F910F900FBE0F901F901895CF93DF9305
:1001000000D0CDB7DEB760E080E00E947A0261E007
:1001100080E00E947A0262E080E00E947A0260E061
:1001200081E00E947A0261E081E00E947A0262E04E
:1001300081E00E947A02198285E08A83CE010196CD
:100140000E94D2040E94C00461E082E00E94C204C6
:100150000E94C6010E9450020E946E020F900F90F2
:10016000DF91CF910895EF92FF920F931F9362E07A
:1001700080E00E94820210E4E12E1BE4F12E0CE4E8
:1001800010E021E041E061E080E00E94D10260E007
:1001900081E00E94820262E081E00E947E021F9163
:1001A0000F91FF90EF900895EF92FF920F931F939E
:1001B00081E08093780062E00E947E0210E4E12EEC
:1001C0001BE4F12E0CE410E021E041E061E080E06E
:1001D0000E94D1020E942D0266E070E080E090E073
:1001E0000E945B0262E081E00E94820262E080E0A5
:1001F0000E947E0220E43BE44CE450E060E081E0B9
:100200000E9486020E94B30010927A001F910F9103
:10021000FF90EF90089581E08093780062E00E9463
:10022000820262E080E00E947E020E942D0266E06F
:1002300070E080E090E00E945B0220E43BE44CE44C
:1002400050E060E081E00E9486020E94B3001092BC
:100250007A000895109278000E942D0262E070E00A
:1002600080E090E00E94740262E081E00E947E02E1
:1002700080917A0081110DC01092790020E43BE456
:100280004CE450E060E00E94860260E080E00E9462
:10029000820280917A0081110FC081E08093790001
:1002A00020E43BE44CE450E061E080E00E949702EF
:1002B00061E080E00E94820280917A0081110FC08B
:1002C00082E08093790020E43BE44CE450E062E07B
:1002D00080E00E94860262E080E00E9482028091BB
:1002E0007A0081110FC081E08093790020E43BE423
:1002F0004CE450E061E080E00E94970261E080E021
:100300000E94820208950E942A0180917A00813021
:1003100011F40E940B0180917A008230A1F70E94B3
:10032000D400F1CFCF93C82F40E065E080E00E9479
:10033000E80340E066E080E00E94E80364E175E0E5
:1003400080E090E00E94440541E067E080E00E9488
:10035000E80364E175E080E090E00E9444056C2FC2
:1003600082E00E94AE0464E175E080E090E00E94CB
:10037000440540E067E080E00E94E80364E175E046
:1003800080E090E00E944405CF91089542E065E04E
:1003900080E00E94220342E066E080E00E942203A7
:1003A00042E067E080E00E9422036FEF82E00E945B
:1003B0008C0488E30E9492018CE00E94920184E008
:1003C0000E94920181E00E9492010895CF93C82F6C
:1003D00041E065E080E00E94E80340E066E080E004
:1003E0000E94E80364E175E080E090E00E9444052B
:1003F00041E067E080E00E94E80364E175E080E0AE
:1004000090E00E9444056C2F82E00E94AE0464E1FB
:1004100075E080E090E00E94440540E067E080E005
:100420000E94E80364E175E080E090E00E944405EA
:10043000CF910895813039F058F0823031F0833017
:1004400031F060E005C0605C03C0605F01C0605BCC
:10045000862F80680E949201089581E00E94920197
:1004600008950F931F93CF938C01862F90E00896E9
:10047000880F880F880F0E949201C0E007C0F80122
:10048000EC0FF11D80810E94E601CF5FC830B8F308
:1004900060E080E00E941A02CF911F910F910895B1
:1004A00060E080E790E00E94310261E088E690E041
:1004B0000E9431020895CF93DF93C82FD62F0E9458
:1004C0001A0280E00E94E6016D2F8C2F0E941A0212
:1004D00081E00E94E601DF91CF91089562E080E61D
:1004E00090E00E94310208950E941A0282E00E9468
:1004F000E601089542E00E942203089541E00E942F
:10050000E803089540E00E94E8030895CF92DF9247
:10051000EF92FF9269017A010E947E02C701B60143
:100520000E944405FF90EF90DF90CF9008951F93B5
:10053000CF93DF93182FD62F10927B00CA01B901F9
:1005400020E432E44FE050E00E94D105C22F1DC0EC
:100550006D2F812F0E947E026CEB70EA87E090E0A5
:100560000E94440580917B00813089F06D2F812F9E
:100570000E9482026CEB70EA87E090E00E944405E2
:1005800080917B00813019F0C150C111E1CFDF9122
:10059000CF911F9108950E94BD0581E080937B005B
:1005A0000895BF92CF92DF92EF92FF920F931F9325
:1005B000CF93DF93B82EC62ED42ED22FC801B70109
:1005C00010927B0020E432E44FE050E00E94D1051D
:1005D000C22F25C06C2D8B2D0E947E026D2F8D2D7C
:1005E0000E947E026CEB70EA87E090E00E94440576
:1005F00080917B008130A9F06C2D8B2D0E948202AE
:100600006D2F8D2D0E9482026CEB70EA87E090E0E6
:100610000E94440580917B00813019F0C150C111C6
:10062000D9CFDF91CF911F910F91FF90EF90DF9085
:10063000CF90BF9008950E947E000E94830180E0C9
:1006400090E00895683008F0C2C0843008F0BFC060
:100650008130B1F138F0823009F460C0833009F4A0
:100660008AC0089541110CC02AB381E090E002C015
:10067000880F991F6A95E2F7809582238ABB0895B7
:10068000413081F42AB381E090E002C0880F991FC5
:100690006A95E2F7982F909592239ABB9BB3892B8A
:1006A0008BBB0895423009F092C02AB381E090E0FC
:1006B00002C0880F991F6A95E2F7822B8ABB0895C2
:1006C00041110CC027B381E090E002C0880F991F50
:1006D0006A95E2F78095822387BB0895413081F4C3
:1006E00027B381E090E002C0880F991F6A95E2F776
:1006F000982F9095922397BB98B3892B88BB089528
:10070000423009F064C027B381E090E002C0880F56
:10071000991F6A95E2F7822B87BB089541110CC09F
:1007200024B381E090E002C0880F991F6A95E2F738
:100730008095822384BB0895413081F424B381E005
:1007400090E002C0880F991F6A95E2F7982F909564
:10075000922394BB95B3892B85BB08954230B9F59C
:1007600024B381E090E002C0880F991F6A95E2F7F8
:10077000822B84BB089541110CC021B381E090E02D
:1007800002C0880F991F6A95E2F78095822381BB8A
:100790000895413081F421B381E090E002C0880FD8
:1007A000991F6A95E2F7982F9095922391BB92B387
:1007B000892B82BB0895423051F421B381E090E04F
:1007C00002C0880F991F6A95E2F7822B81BB0895BA
:1007D000683008F0A0C0843008F09DC0813069F115
:1007E00038F0823009F44EC0833009F470C00895A7
:1007F0008AB390E0062E02C0959587950A94E2F799
:1008000080FF89C0413059F42BB381E090E002C0F1
:10081000880F991F6A95E2F7822B8BBB08954111CF
:100820007AC02BB381E090E002C0880F991F6A95CF
:10083000E2F7809582238BBB089587B390E0062E64
:1008400002C0959587950A94E2F780FF64C0413015
:1008500059F428B381E090E002C0880F991F6A958F
:10086000E2F7822B88BB0895411155C028B381E07F
:1008700090E002C0880F991F6A95E2F78095822365
:1008800088BB089584B390E0062E02C095958795A5
:100890000A94E2F780FF3FC0413059F425B381E06C
:1008A00090E002C0880F991F6A95E2F7822B85BB02
:1008B0000895411130C025B381E090E002C0880F57
:1008C000991F6A95E2F78095822385BB089581B3CD
:1008D00090E0062E02C0959587950A94E2F780FF76
:1008E0001AC0413059F422B381E090E002C0880F71
:1008F000991F6A95E2F7822B82BB089541110BC0C4
:1009000022B381E090E002C0880F991F6A95E2F758
:100910008095822382BB08958430F8F4813061F0A1
:1009200028F0823079F0833099F008956ABB611124
:1009300014C08FEF8BBB089567BB61110EC08FEFA2
:1009400088BB089564BB611108C08FEF85BB089513
:1009500061BB611102C08FEF82BB0895843078F4CF
:10096000813041F028F0823039F0833039F0089539
:100970006BBB089568BB089565BB089562BB08957D
:1009800078940895CF93C82F462F62E083E00E94A9
:10099000220385B78C7FC82BC5BF8BB780648BBF04
:1009A000CF910895FC018081833019F083B780686E
:1009B00083BF83B79081292F217030E0A9010024E3
:1009C000569547950794569547950794542F402D73
:1009D0009270292F30E0220F331F220F331F220F76
:1009E000331F242B282B23BF93B78181892B83BFEF
:1009F0008181813069F481E090E0A0E0B0E08093F3
:100A00007D0090937E00A0937F00B09380000895B6
:100A1000823069F488E090E0A0E0B0E080937D004F
:100A200090937E00A0937F00B09380000895833060
:100A300069F480E490E0A0E0B0E080937D009093C2
:100A40007E00A0937F00B09380000895843069F405
:100A500080E091E0A0E0B0E080937D0090937E0084
:100A6000A0937F00B09380000895853061F480E00A
:100A700094E0A0E0B0E080937D0090937E00A0938E
:100A80007F00B09380000895BF92CF92DF92EF92E3
:100A9000FF920F931F93CF93DF936B017C01109212
:100AA0007C0020917D0030917E0040917F0050912C
:100AB000800060E472E48FE090E00E94C10520E4D1
:100AC00032E44FE050E00E94D105022F132FD42FC3
:100AD000C52F542F432F322F2227C216D306E406E8
:100AE000F506A0F4CA01B9016C197D098E099F09A8
:100AF000202F312F4D2F5C2F0E94D10522BF08B629
:100B000000FEFDCF88B7816088BF2DC02C153D0544
:100B10004E055F0540F5C701B6010E94D105BB2413
:100B2000B394B20EC701B601202F312F4D2F5C2F89
:100B30000E94D105CA01B9012B2D30E040E050E000
:100B40000E94D105219590E00CC022BF08B600FE9E
:100B5000FDCF88B7816088BF9F5F80917C00813026
:100B600011F09B1590F3DF91CF911F910F91FF90A2
:100B7000EF90DF90CF90BF90089581E080937C004C
:100B80000895DB018F939F930E94F305BF91AF916E
:100B9000A29F800D911DA39F900DB29F900D1124D7
:100BA0000895A1E21A2EAA1BBB1BFD010DC0AA1FAE
:100BB000BB1FEE1FFF1FA217B307E407F50720F0C6
:100BC000A21BB30BE40BF50B661F771F881F991F41
:100BD0001A9469F760957095809590959B01AC018A
:100BE000BD01CF0108950E94FE05A59F900DB49F01
:100BF000900DA49F800D911D11240895A29FB00116
:100C0000B39FC001A39F700D811D1124911DB29F40
:0E0C1000700D811D1124911D0895F894FFCFE1
:100C1E00060F0F1F1F1F0E000E040E0D040A0900F3
:080C2E000E040E16040A120068
:00000001FF
